:100000000C9430050C9477050C9477050C947705C7
:100010000C9477050C9477050C9477050C94770570
:100020000C9477050C9477050C9465210C94372279
:100030000C94DE1C0C9477050C9477050C947705D2
:100040000C9477050C9477050C9477050C94770540
:100050000C9477050C94371D0C9477050C94770558
:100060000C9477050C9477050C9477050C94770520
:100070000C9477050C9477050C9477050C94770510
:100080000C9477050C9477050C9477050C94770500
:100090000C9477050C9477050C9477050C947705F0
:1000A0000C9477050C9477050C94770591139113B4
:1000B000C313C31319151915191519151014A914FB
:1000C000BA14BA14AD15AD15BF15BF15B615BF15C9
:1000D000BF15BF15AD15AD15BB15BF15BF15BB15AC
:1000E000A422CB22C323CB22C32317233A23C32327
:1000F0009123A02300000000001806DF0C18000068
:100100000000000000FFFFFFFFC7C7CFFEFEFC108E
:1001100040F8FCFE1E0F0F0F0F1FFEFCF8F000FF53
:10012000FFFFFF0000000000030F3FFFFCF0F0FCAA
:10013000FF3F0F030000FFFFFFE0E0E0E0E0FFFF14
:10014000FF0000FFFFFFFFE7E7E7E70700FFFFFF14
:10015000FF0F0F0F0E3EFEFCF80000FFFFFFFFC772
:10016000C7CFFEFE7C38000080F0FEFF3F3FFFFE61
:10017000F0800000101C1B14100201010200141971
:100180001E1C1000001F1F1F1F01010101000000A5
:1001900000030F1F1F1C1C1C1C1E1F0F0701001F2C
:1001A0001F1F1F1818181800000000001F1F1F1F16
:1001B0000000000000001F1F1F00000000001F1FA4
:1001C0001F00001F1F1F1F1818181818001F1F1FBF
:1001D0001F1C1C1C1E1F0F0F0300001F1F1F1F03CF
:1001E000071F1F1C1800101C1F1F0F070707070FF2
:1001F0001F1F1C1000000000000000000000000095
:1002000000000000000000000000000000000000EE
:1002100000000000000000000000000000000000DE
:1002200000000000000000000000000000000000CE
:1002300000000000000000000000000000000000BE
:1002400000000000000000000000000000000000AE
:10025000000000000000000000000000000000009E
:10026000000000000000000000000000000000008E
:10027000000000000000000000000000000000007E
:10028000000000000000000000000000000000006E
:10029000000000000000000000000000000000005E
:1002A000000000000000000000000000000000004E
:1002B000000000000000000000000000000000003E
:1002C000000000000000000000000000000000002E
:1002D000000000000000000000000000000000001E
:1002E000000000000000000000000000000000000E
:1002F00000000000556E646566696E6564005448D0
:100300004952440A00464E0A0044656661756C74A1
:100310000A004C617965723A200068747470733A0F
:100320002F2F716D6B2E666D2F0A00514D4B20697A
:1003300073207468652062657374207468696E67E1
:100340002065766572210011501E0008001F0020F4
:1003500000210022002300240025002600050006BD
:1003600000070009000A0010501250080020002069
:10037000002100220023002400250026000500069D
:1003800000070009000A001150105011001300204E
:10039000002100220023002400250026000500067D
:1003A00000070009000A0000000000000000002A09
:1003B0002B280000000000000000000000000000EA
:1003C000000029000000002C1E34202122243426A5
:1003D00027252E362D3738271E1F2021222324259E
:1003E000263333362E37381F0405060708090A0B53
:1003F0000C0D0E0F101112131415161718191A1BC5
:100400001C1D2F3130232D350405060708090A0B62
:100410000C0D0E0F101112131415161718191A1BA4
:100420001C1D2F3130354C00000000000000000082
:1004300000000000000000000000000000000000BC
:1004400000000000000000000000007E0F00D4FF4C
:10045000FFFFC70000007800AE00AF00DA0281FFA6
:10046000D9F1DB20A4A62EAF00A0C000A1C800AE29
:10047000D580A81FD300408D14200000000000008C
:10048000003E5B4F5B3E003E6B4F6B3E001C3E7C74
:100490003E1C00183C7E3C18001C577D571C001C5D
:1004A0005E7F5E1C0000183C180000FFE7C3E7FFFA
:1004B00000001824180000FFE7DBE7FF0030483A8F
:1004C000060E00262979292600407F0505070040F1
:1004D0007F05253F005A3CE73C5A007F3E1C1C0824
:1004E00000081C1C3E7F0014227F2214005F5F0066
:1004F0005F5F0006097F017F00006689956A0060E2
:10050000606060600094A2FFA2940008047E04086A
:100510000010207E20100008082A1C0800081C2A51
:100520000808001E10101010000C1E0C1E0C0030CD
:10053000383E383000060E3E0E0600000000000077
:100540000000005F000000000700070000147F1497
:100550007F1400242A7F2A120023130864620036C5
:100560004956205000000807030000001C224100EB
:10057000000041221C00002A1C7F1C2A0008083EA3
:100580000808000080703000000808080808000013
:1005900000606000002010080402003E5149453E02
:1005A0000000427F4000007249494946002141490C
:1005B0004D33001814127F10002745454539003C83
:1005C0004A49493100412111090700364949493654
:1005D00000464949291E0000001400000000403474
:1005E0000000000008142241001414141414000028
:1005F00041221408000201590906003E415D594E8E
:10060000007C1211127C007F49494936003E41416D
:100610004122007F4141413E007F49494941007FDD
:1006200009090901003E41415173007F0808087F14
:100630000000417F4100002040413F01007F08143D
:100640002241007F40404040007F021C027F007F2B
:100650000408107F003E4141413E007F0909090620
:10066000003E4151215E007F091929460026494973
:1006700049320003017F0103003F4040403F001F1B
:100680002040201F003F4038403F0063140814639F
:10069000000304780403006159494D4300007F4181
:1006A000414100020408102000004141417F000444
:1006B00002010204004040404040000003070800DF
:1006C000002054547840007F284444380038444483
:1006D000442800384444287F0038545454180000FB
:1006E000087E09020018A4A49C78007F08040478FE
:1006F0000000447D4000002040403D00007F102865
:1007000044000000417F4000007C04780478007CB5
:100710000804047800384444443800FC18242418A1
:100720000018242418FC007C0804040800485454D1
:1007300054240004043F4424003C4040207C001C1E
:100740002040201C003C4030403C004428102844FD
:10075000004C9090907C004464544C440000083657
:100760004100000000770000000041360800000250
:1007700001020402003C2623263C00000000000089
:1007800000404040F0F8F8FF38FFF8F83FF8F8FF75
:1007900038FFF8F8F040404000000000000080C042
:1007A000C0C0800000C0C08000000080C0C000C089
:1007B000C0000080C0C00000000000C0C0C0C0C0B9
:1007C00000C0C000000000000000000000000000A9
:1007D0000000000000000000000000000000000019
:1007E0000000000000000000000000000000000009
:1007F00000000000000000000000C0F0F8FC3E1EF9
:1008000006010000007F4141417F007F4141417F5F
:10081000000080C0E07E5B4F5BFEC00000C000DCDB
:10082000D7DEDEDED7DC00C00000000000000000E4
:1008300000000000000000000000000000000000B8
:1008400000494949FFFFFFFFE0DFBFBF00BFBFDF37
:10085000E0FFFFFFFF49494900000000001F3F6023
:1008600060E0BF1F007F7F071E381E077F7F007F6D
:100870007F0E1F3B716000000000007F7F0C0C0C9E
:10088000007E7E007F7E0303007F7E03037E7E0367
:10089000037F7E000F3E703C063C703E0F00327BB3
:1008A00049493F7E007F7E0303001E3F69696F2632
:1008B00000000000000000000000030F1F3F3C7814
:1008C00070600000007F4141417F007F4141417FD6
:1008D00000307B7F7830202030787F3B0003000F92
:1008E0007F0F0F0F7F0F00030000000000000000CB
:1008F00000000000000000000000000000000000F8
:1009000000010101070F0F7F0F7F0F0F7E0F0F7F79
:100910000F7F0F0F07010101000000000000000021
:1009200000000101000000000000000000000000C5
:1009300000000000000000000000000000000000B7
:1009400000000000000000000000000000000000A7
:100950000000000000000000000000000000000097
:100960000000000000000000000000000000000087
:100970000000000000000000000000000000000077
:100980000000000000000000000000000000000067
:100990000000000000000000000000000000000057
:1009A0000000000000000000000000000000000047
:1009B000000000000000000000000010036C007543
:1009C000006B006F006E0065006E000000180349A8
:1009D000006E007400650067007200610043006FE4
:1009E00000720070000000040309040902220001E3
:1009F0000100A0FA0904000001030101000921110E
:100A00000100012240000705810308000A120110BD
:100A10000100000008EDFE000001000102000105D8
:100A2000010906A101050719E029E715002501952F
:100A300008750181029501750881010507190029D2
:100A4000FF150026FF0095067508810005081901AD
:100A50002905950575019102950175039101C00065
:100A600011241FBECFEFDAE0DEBFCDBF04B603FE18
:100A700027C08091F4039091F503A091F603B09103
:100A8000F7038730904BA740B04BD1F41092F4039A
:100A90001092F5031092F6031092F70314BE84B778
:100AA000877F84BF0FB6F894A89580916000886115
:100AB00080936000109260000FBEE0E0F8E30995BB
:100AC00011E0A0E0B1E0EEEEF8E402C005900D9276
:100AD000A632B107D9F723E0A6E2B1E001C01D922A
:100AE000A43FB207E1F70E94B01E0C9475240C9449
:100AF00000000F931F93CF93DF93EC018B010E94B3
:100B0000C90A1092010110920001C9328DE5D8077F
:100B100069F0CA32EDE5DE0781F06F97B1F40E940B
:100B2000C90A10920101109200010FC0F8018281E0
:100B3000882359F08BE293E006C0F8018281882374
:100B400021F08AE193E00E94550781E0DF91CF9187
:100B50001F910F91089580910001909101010197DB
:100B600031F460E072E084EF90E00C941B0C60E0E4
:100B700082E193E00E94040C6091B2017091B30194
:100B80008091B4019091B5010E945807813059F0CD
:100B900030F0823069F460E08EEF92E007C060E0F0
:100BA00089E093E003C060E085E093E00C94040CDE
:100BB00060E084EF92E00C94160C81E008950C94B0
:100BC000790508950C94E1051F93CF93DF9300D02E
:100BD00000D01F92CDB7DEB749835A836B83309123
:100BE0006F0189819A81311114C0662359F0222343
:100BF00049F00E94671A182F682F89819A810E94F4
:100C0000121A03C00E943C1A182F69817A81812F21
:100C100004C00E94671A69817A810F900F900F902B
:100C20000F900F90DF91CF911F910C94B807FC01AA
:100C3000262F408151816281738184810C94E40567
:100C4000CF93DF93EC0160E00E941706BE01DF91B5
:100C5000CF910C94E2050E948E1B811102C00E946C
:100C6000351C0C9497090C94930908950E949B15C8
:100C70000E9435062FEF84E39CE021508040904095
:100C8000E1F700C000000C945D1D0F931F93CF93FC
:100C9000DF93EC0161E00E9417068C01BE010E9407
:100CA000DF05882349F1BE01C8010E94470E882351
:100CB00019F1BE01C8010E94990E8823E9F0BE0116
:100CC000C8010E94C40F8823B9F08A81882369F083
:100CD00001158CE5180731F00F3D1C4531F40E94D9
:100CE000351C0AC00E94360607C0CE01DF91CF91A5
:100CF0001F910F910C94DD0580E0DF91CF911F9142
:100D00000F910895DF92EF92FF920F931F93CF936D
:100D1000DF93E82FF0E0E955FC4FD490282F26957B
:100D20002695269530E0F901E95BFB4F0491877029
:100D300010E0082E02C0159507950A94E2F701709D
:100D40001127F901E95CFB4FE490F12C082E02C059
:100D5000F594E7940A94E2F791E0E922FF24F9017F
:100D6000E95DFB4FC491D0E002C0D595C7958A9547
:100D7000E2F7C170DD270115110519F081EE0E941F
:100D80004512E114F10419F086EE0E9445128D2DF2
:100D90000E944313EF2819F086EE0E94CD12012B1A
:100DA00019F081EE0E94CD12CD2B51F08CE2DF9133
:100DB000CF911F910F91FF90EF90DF900C94431310
:100DC000DF91CF911F910F91FF90EF90DF900895E9
:100DD000EF92FF920F931F93CF93DF938C01F62E28
:100DE0008AE0E82EF8018491882309F457C0813005
:100DF00009F042C0E8012196FE018491813031F46E
:100E00002196FE0184910E94431339C0823039F447
:100E1000E8012296FE0184910E94451230C0833081
:100E200039F4E8012296FE0184910E94CD1227C078
:100E3000843029F5E8012296FE01249180E090E0BB
:100E400030E0205331092A30310560F4E89EA001DA
:100E5000E99E500D1124C901840F951F2196FE01B2
:100E60002491EECF009759F0EFE9FFE03197F1F7C9
:100E700000C000000197F6CF0E948206E8018E01B3
:100E80000F5F1F4F8F2D882309F4ACCFEFE9FFE0F0
:100E90003197F1F700C000008150F5CFDF91CF917D
:100EA0001F910F91FF90EF90089560E00C94E80679
:100EB000CF92DF92EF92FF926C01EE24FF24C114D7
:100EC000D104E104F10421F0C701B60120E101C021
:100ED00020E0C72ED82EE92EFF24C114D104E1044E
:100EE000F10419F0285FC701B6016B017C0154E0E1
:100EF000F694E794D794C7945A95D1F7C114D104C6
:100F0000E104F10419F02C5FC701B6016B017C010B
:100F100042E0F694E794D794C7944A95D1F7C11468
:100F2000D104E104F10419F02E5FC701B601DC0120
:100F3000CB01B695A79597958795892B8A2B8B2BF7
:100F400009F02F5F822FFF90EF90DF90CF900895F0
:100F500008950C94A80781E008950C94AB07CF93F3
:100F6000C82F0E94A9078C2F0E94AD07CF9108952A
:100F7000E72FF0E094E0899FE00DF11D1124EE0FC2
:100F8000FF1FEE0FFF1FE60FF11DEE0FFF1FE95BC6
:100F9000FC4F859194910895CF93DF930E94B807F9
:100FA0000E94AA08EC01811523E5920798F58115A6
:100FB00042E5940708F094C0C11580E2D807C0F458
:100FC000C11521E0D20708F0C1C0C53AD10548F4E7
:100FD000C430D10508F0BAC0C130D10509F4B6C09B
:100FE000B3C0CE01805E9109089708F4AFC0ACC0D1
:100FF000C11541E5D40708F06EC0C11580E5D807DA
:1010000008F04DC0C11520E4D20708F49DC0DF7080
:10101000D06A9CC0811546E5940700F5C11585E5A9
:10102000D80708F077C0C11524E5D20708F06DC0D5
:10103000CE018370992721E030E002C0220F331FD8
:101040008A95E2F78C2F8695869540E2849FC001B1
:101050001124E901C82BD92BDA6878C081154AE53B
:10106000940778F4C11589E5D80708F05DC0C1156B
:1010700028E5D20708F468C0DC2FCC27C06FD06AFF
:1010800065C090568115904208F05EC08D2F8F711B
:101090000E943E09DD27D0628F71D82B57C0CE0148
:1010A00074E0969587957A95E1F783709C2F9370FD
:1010B00021E030E002C0220F331F9A95E2F73C682E
:1010C000382BCF70C695C69580E2C89FE0011124E9
:1010D000C22BD32B3BC0DC2FCC27C16FD06A36C0CC
:1010E0008370992721E030E002C0220F331F8A95D8
:1010F000E2F78C2F8695869540E2849FC0011124EB
:10110000E901C82BD92BDC6821C0DC2FCC27C46FA8
:10111000D06A1CC08C2F0E943E098F71C82FD0E06E
:10112000DC2FCC27D06212C08C2F8F700E943E091A
:1011300094E0D695C7959A95E1F7CF70D0E0DC2F73
:10114000CC27D069C82B02C0C0E0D0E0CE01DF912F
:10115000CF9108958238910569F1B0F481339105FA
:1011600009F46DC048F48932910509F463C08A32EC
:10117000910509F469C008958533910509F455C0B6
:1011800089339105B9F00895833E910569F138F4EA
:10119000803E9105B1F0823E910509F10895863EA9
:1011A0009105A9F1873E9105B9F1843E910509F0B9
:1011B00064C023C02091E50320FD4FC021FD4DC038
:1011C00008958091E50380FD44C08091E60380FF8F
:1011D00044C08091E50384FD42C083EE4DC0809100
:1011E000E50382FF38C0F5CF8091E50382FD33C06F
:1011F0008091E60380FD31C0ECCF8091E60381FF52
:1012000032C08091E50384FD2AC087EE35C080910D
:10121000E50383FF26C0F5CF8091E50383FD21C060
:101220008091E60381FD1FC0ECCF8091E50385FD31
:101230001CC01DC08091E50385FD19C016C08091BA
:10124000E50386FD16C017C08091E50386FD13C037
:1012500010C089E311C082EE0FC080EE0DC080E0A7
:101260000BC086EE09C084EE07C089E205C085E3A5
:1012700003C08AE201C081E390E008959091E50304
:1012800092FF0DC0282F2871283019F4877F8460C1
:1012900006C0282F2471243011F48B7F886093FFBF
:1012A0000DC0282F2871283119F4877E846106C06B
:1012B000282F2471243111F48B7E88612091E6035C
:1012C00020FF0DC0382F3871383019F4877F8160C6
:1012D00006C0382F3171313011F48E7F886021FFC4
:1012E0000DC0282F2871283119F4877E816106C02E
:1012F000282F2171213111F48E7E886194FD877E23
:101300000895E82FF0E0E952FE4F80810895089596
:1013100080EA8A95F1F7089500C008950C94880931
:1013200008950C9490090C9491090C9490090C94D4
:101330009509F894E82FE295EF70F0E031A1282F9D
:101340002F7081E090E001C0880F2A95EAF7982F6E
:101350009095932391A392A1892B82A378940895C9
:1013600087E90E94990986EC0E94990984E30E940A
:10137000990985E30E94990981E30E94990983E311
:101380000E94990982E30E94990986E30E949909C3
:10139000A3EDB1E01C92E7EDF1E0108211961C92F2
:1013A0001197118212961C921297128213961C9218
:1013B000138284E00E94680A0C942B068F929F92FD
:1013C000AF92BF92CF92DF92EF92FF920F931F9353
:1013D000CF93DF9303ED11E08AE1E82E81E0F82E50
:1013E000C0E0D0E0912CCC24C394D12C5701F7015C
:1013F0008081F894E82FE295EF70F0E021A18F70E2
:10140000A60102C0440F551F8A95E2F7CA01922F28
:10141000982B91A392A18095892382A378940E940E
:101420008C09E6E1F1E020E030E0812C4191A42F2D
:10143000A295AF70B0E090968C9190E04F7002C092
:10144000959587954A95E2F780FD07C08C2D022E71
:1014500001C0880F0A94EAF701C080E0882A2F5F54
:101460003F4F2430310511F75FEFE51AF50AF5011A
:1014700080810E949909C330D10511F00E948E0924
:10148000F8018081881619F0808281E001C080E037
:10149000982A21960F5F1F4FC430D10509F0A6CFBF
:1014A000292D44E067ED71E083ED91E00E94690A27
:1014B0000E943306892DDF91CF911F910F91FF90EC
:1014C000EF90DF90CF90BF90AF909F908F90089556
:1014D0000895FF920F931F93CF93DF938C01F62E05
:1014E000D72FC42F222349F081E080932A010E9444
:1014F000101D909329018093280180912A0188234F
:10150000C1F080912801909129010E94281D069721
:1015100080F0EF2DFD2FD8014C2F50E0CD01801B26
:10152000910B841795071CF48D918193F7CF10923E
:101530002A01DF91CF911F910F91FF900895EF92B3
:10154000FF920F931F93CF93DF93EC017B0164E62F
:1015500070E088E70E94FB0F8C01EC0EFD1ECE159B
:10156000DF0561F017FD0AC0FE01849164E670E0BA
:101570000E9452108C012196892B89F30E94D6106B
:10158000C801DF91CF911F910F91FF90EF900895C7
:101590000895EBEDF1E080E092E0DF019C011D9207
:1015A00021503040E1F7F093E003E093DF038FEF49
:1015B0009FEF9093570180935601089580E00E9419
:1015C000C80A8093520180FD02C080E801C080E219
:1015D000809351010E94F50F6DE070E08EE694E07B
:1015E0000E949F0A892B11F080E00895809152019A
:1015F00063E070E081FD03C08BE694E002C088E602
:1016000094E00E949F0A892B79F76DE070E08BE5EA
:1016100094E00E949F0A892B39F70E941C1DDC016F
:10162000CB01805A9541AF4FBF4F8093DB0390931E
:10163000DC03A093DD03B093DE030E94C90A81E0BE
:101640008093550180935401109253010895209185
:10165000510136E0839FC0011124629F800D911DCE
:101660001124811522E0920714F080E090E0855269
:101670009E4F9093E0038093DF0308952091DF0352
:101680003091E003255D314040915101642F70E0BD
:10169000C9010E940324481B463010F4240F311D59
:1016A000211582E0380710F020E030E025523E4F4F
:1016B0003093E0032093DF030895CF93DF938A30C4
:1016C00011F481E003C08D3029F480E0DF91CF91E7
:1016D0000C94D30BC62F682F8091DF039091E00309
:1016E00026E0FC01ABE2B1E001900D922A95E1F712
:1016F000603E30F026E0FC0111922A95E9F70AC01D
:10170000F6E06F9FB001112465587B4F46E050E032
:101710000E941D24C11135C0C091DF03D091E003A8
:1017200046E050E0BE018BE291E00E942624892B26
:10173000B1F1CB5DD1409E0185E0369527958A9524
:10174000E1F781E090E0AC0102C0440F551F2A95FB
:10175000E2F72091560130915701242B352B259625
:1017600045E0D695C7954A95E1F702C0880F991FC5
:10177000CA95E2F7822B932B9093570180935601E1
:101780000EC0E091DF03F091E0039F012A5F3F4F1D
:101790002E173F0709F2808180958193F9CFDF9161
:1017A000CF910C943E0BCF93E82F2091DF03309123
:1017B000E0032B5D314040915101642F70E0C9017D
:1017C0000E940324481B842FEE2359F066E00E94F8
:1017D000F723C82FC150B0F060E080E20E945D0B9B
:1017E000F9CFA901480F511D4115524018F080E072
:1017F00020E030E0280F311D25523E4F3093E003AA
:101800002093DF03CF9108951F93CF93DF93EC01D3
:10181000162FFE018491882329F0612F0E945D0B11
:101820002196F7CFDF91CF911F9108950E94040C6C
:1018300081E00C94D30BEF92FF920F931F93CF9301
:10184000DF932091DF033091E0032B5D3140A9014C
:10185000460F571F4130524020F060E072E0621B9B
:10186000730BC0915601D0915701D901A552BE4FBB
:10187000A901620F731F01E010E046175707E8F453
:10188000FA01E21BF30BE80FF91FE491FC91EF174B
:1018900081F0EC93FA01689414F8F695E7951694A4
:1018A000E1F7780102C0EE0CFF1CEA95E2F7CE29C1
:1018B000DF294F5F5F4F1196E0CFD0935701C09360
:1018C0005601DF91CF911F910F91FF90EF900895F6
:1018D000809155018823F9F00E941C1DDC01CB0189
:1018E000805A9541AF4FBF4F8093DB039093DC0349
:1018F000A093DD03B093DE038091540181110BC0EE
:1019000062E070E089E594E00E949F0A892B19F457
:1019100081E0809354018091540108956F927F92E9
:101920008F929F92AF92BF92CF92DF92EF92FF92EF
:101930000F931F93CF93DF9380915501882309F470
:10194000DCC020915601309157012115310509F471
:10195000D4C0809153018111D0C061E070E0082FA4
:1019600010E03B01082E02C0660C771C0A94E2F7D7
:10197000A90146215721452B11F48F5FF0CF90919B
:101980005201980165E0220F331F6A95E1F790FD3F
:1019900012C08295880F807680930401220F232F36
:1019A000221F330B319520930701815E809305013F
:1019B0001092080112C045E0369527954A95E1F747
:1019C000220F220F220F2093040110920701295F9A
:1019D0002093050183E08093080124E630E047E08E
:1019E00050E062E071E088E70E948210892B09F0E4
:1019F00084C08091520180FD23C0A80195E0440F6E
:101A0000551F9A95E1F745525E4F04E610E020E23B
:101A100030E060E488E70E94A910892B09F06DC0CE
:101A20000E94680CE301C095D09580915601909179
:101A30005701C823D923D0935701C09356015DC0E5
:101A400080E2E1E3F1E0DF011D928A95E9F785E0AC
:101A5000000F111F8A95E1F7A2E2B1E04EE151E0DB
:101A6000992493942D91EA018991AE01B801680FF0
:101A7000711D65527E4F30E02F5C3E4FF90197E0BB
:101A80007F01E21AF30AA92C01C0AA0CEA94EAF732
:101A90007B01B12CE70189917E018A21892E8B1867
:101AA000D82DD770CD2E0D2E000CDD08C82F01C00B
:101AB000CC0FDA95EAF7D194C194D108D7E0CD22C2
:101AC000DD2401C08695CA94EAF78C2BD0808D293D
:101AD0008083B39488E0B812DDCF915031969F3F58
:101AE00079F6C1E0A632BC0709F0BCCF04E610E0ED
:101AF00020E230E041E351E08CCFDF91CF911F91A4
:101B00000F91FF90EF90DF90CF90BF90AF909F909C
:101B10008F907F906F90089580915501909154011E
:101B2000882389F0992369F062E070E087E594E00A
:101B30000E949F0A892B19F08091540108951092F8
:101B400054019091540181E0892708950F931F93C8
:101B500080915501882329F160E080E00E94270BE5
:101B60000E94AB050E948E0C809154018823C9F01D
:101B70000E941C1D0091DB031091DC032091DD030A
:101B80003091DE03DC01CB01801B910BA20BB30B68
:101B90008F3F9F4FAF4FBF4720F41F910F910C9481
:101BA0008C0D1F910F9108950F931F93CF93DF9387
:101BB000C42FD22FFC0182818823C9F040935A019F
:101BC0000E94101D909359018093580180E28C0F60
:101BD000883008F057C0C77081E001C0880FCA95EF
:101BE000EAF7DF91CF911F910F910C944C138091E4
:101BF0005A01481330C080915801909159010E94B8
:101C0000281D883C910538F510E21D0FCD17B9F05D
:101C100080E28C0F883040F4C77081E001C0880FEB
:101C2000CA95EAF70E945313183028F581E09D2FDA
:101C3000977001C0880F9A95EAF70E944C13802F85
:101C40000E9443131830F0F4D77081E001C0880F70
:101C5000DA95EAF70AC080E28C0F883098F4C770F2
:101C600081E001C0880FCA95EAF7DF91CF911F91FB
:101C70000F910C945313802FDF91CF911F910F91EF
:101C80000C944313DF91CF911F910F9108950F93FF
:101C90009C01CB01243F4CE5340731F188F4293D08
:101CA000FCE53F07D9F02A3D4CE5340779F1283DA2
:101CB0003C45A9F506E221EE41EE68ED7CE52BC03E
:101CC000263FFCE53F07E1F0A8F0273F3C4539F50A
:101CD00007E225EE46EE67EF7CE51DC007E225EE44
:101CE00045EE69ED7CE517C006E221EE40EE64EFBB
:101CF0007CE511C007E225EE44EE65EF7CE50BC004
:101D000006E221EE42EE66EF7CE505C008E221E046
:101D100045EE6AED7CE50E94D40D80E008C0FC0130
:101D20008281882319F010925A0101C081E00F913D
:101D30000895CF93DF93EC01FB018281882309F49E
:101D40001FC1C230FCE5DF0708F41BC1C6319CE5AA
:101D5000D90738F09E012B5F3C452930310508F04A
:101D600010C10E94A11B9093E6038093E503C0314C
:101D7000ECE5DE0709F4C3C008F041C0C8308CE5CB
:101D8000D80709F49AC0F0F4C430ECE5DE0709F492
:101D900087C068F4C2308CE5D80709F477C0C33037
:101DA000DC4509F0E3C08091E503826076C0C6306F
:101DB000ECE5DE0709F46EC008F07BC08091E50316
:101DC00088606BC0CC308CE5D80709F485C068F416
:101DD000CA30ECE5DE0709F474C008F079C00E944F
:101DE0009B158091E503806858C0CE308CE5D807FC
:101DF00009F476C008F07FC08091E5038BC0CC3F2A
:101E0000ECE5DE0709F44FC018F5C3318CE5D807BF
:101E100009F47DC078F4C131ECE5DE0709F473C044
:101E2000C231DC4509F0A2C00E949B158091E503F8
:101E30008F7733C0C5318CE5D80709F472C008F438
:101E400086C0CB3FDC4509F091C08091E6033EC0DF
:101E5000C115FDE5DF0709F45FC058F4CE3F9CE5EE
:101E6000D90709F444C008F43FC08091E6038260BA
:101E70002DC0C230FDE5DF0709F475C008F45DC070
:101E8000C330DD4509F072C080E06EC08091E5038B
:101E9000816003C08091E50380618093E50366C0A3
:101EA0008091E50311C08091E60382608093E60390
:101EB0005DC08091E5038062F0CF8091E50380648E
:101EC000ECCF8091E50388608460E7CF8160EECF3E
:101ED0008091E5038E7FE1CF8091E5038D7FDDCF9B
:101EE0008091E503877FD9CF8091E60318C0809168
:101EF000E6038D7FDBCF8091E5038F7ECECF80918F
:101F0000E5038F7DCACF8091E5038F7BC6CF80919B
:101F1000E503877F8B7FC1CF8091E6038D7F8E7F26
:101F2000C5CF8091E50382FB222720F991E092271B
:101F300090FB82F990FB83F9B0CF8091E603982F54
:101F4000909591708E7F892B90FB81F9AFCF0E9485
:101F50009B158091E50387FB222720F991E09227CA
:101F600090FB87F99ACF81E00E94371C8091E503AE
:101F70009091E6030E94B21B0E949B1580E001C075
:101F800081E0DF91CF910895CF93DF9386319C4517
:101F900041F5EB010E94E81A982F8A8120910901EE
:101FA00030910A01882379F09A7A81E009F480E07F
:101FB00080935B01911102C069E201C065E3C90130
:101FC0000E947E1C0AC080915B01811102C069E2FF
:101FD00001C065E3C9010E94801C0E94291B80E0AA
:101FE00001C081E0DF91CF9108951092B9008CE09B
:101FF0008093B8000895EF92FF920F931F93CF93B1
:10200000DF93182FEB011092BC0084EA8093BC0090
:102010000E94101D7C018091BC0087FD0EC0CF3F47
:102020008FEFD807C1F30E94101D8E199F098C17DE
:102030009D0788F38EEF9FEF2EC08091B900887FB7
:10204000883041F08091B900887F803119F08FEF9E
:102050009FEF21C01093BB0084E88093BC000E94D6
:10206000101D8C018091BC0087FD0CC0CF3F8FEF0D
:10207000D807C1F30E94101D801B910B8C179D0780
:1020800088F3D8CF8091B900887F883111F08034EF
:10209000F1F680E090E0DF91CF911F910F91FF90DA
:1020A000EF9008950F931F93CF93DF93EB018093ED
:1020B000BB0084E88093BC000E94101D8C018091BD
:1020C000BC0087FD0EC0CF3F8FEFD807C1F30E9441
:1020D000101D801B910B8C179D0788F38EEF9FEFCF
:1020E0000CC02091B900287F81E090E0283211F4E3
:1020F00080E090E0919581959109DF91CF911F91BA
:102100000F910895CF92DF92EF92FF920F931F935A
:10211000CF93DF936B018A017901B9010E94FB0F14
:10212000E6010C0D1D1DC017D10761F424E92093B1
:10213000BC00DF91CF911F910F91FF90EF90DF9046
:10214000CF90089597FDF2CFB70189910E94521068
:10215000EACFCF92DF92EF92FF920F931F93CF932C
:10216000DF93C62F6A017901B8010E94FB0F97FD2A
:1021700011C0B8018C2F0E945210E601EC0CFD1C1E
:10218000CE15DF0539F097FD05C0B80189910E9491
:102190005210F6CF24E92093BC00DF91CF911F911C
:1021A0000F91FF90EF90DF90CF90089584E9809396
:1021B000BC00089590936101809360010895E091BF
:1021C0006001F0916101309721F00190F081E02DE4
:1021D000099480E00895E0916001F09161013097E9
:1021E00021F00280F381E02D0994089520915E0191
:1021F00030915F012817390771F090935F01809348
:102200005E01E0916001F0916101309721F006805C
:10221000F781E02D0994089520915C0130915D01D2
:102220002817390771F090935D0180935C01E0916C
:102230006001F0916101309721F00084F185E02D7B
:10224000099408950E941C1D60936B0170936C01AA
:1022500080936D0190936E016093670170936801A4
:102260008093690190936A01089585B7806885BF5E
:1022700085B7806885BF089581E008950C943C116E
:1022800008950C9440110C9440110C9443110C943B
:1022900040110C9447110C9440110E9435118CE8A8
:1022A0009BE10E94811D0E944B110C9449110E94D8
:1022B000071D0E94B00980E00E94DE0A0E94861D70
:1022C0000C9445118F929F92AF92BF92CF92DF9262
:1022D000EF92FF920F931F93CF93DF93CDB7DEB7AB
:1022E0002A970FB6F894DEBF0FBECDBF0E944111F2
:1022F0000E9440110E94DE09982E81110E94221135
:1023000083E6A82E81E0B82E00E010E0802E802F1A
:102310000E948109D82EF501C1905F01C826B1F451
:102320000F5F1F4F0430110589F78FEF89838A8370
:102330001B820E94101D8160782F9D838C834981B0
:102340005A816B818D810E940B122FC08091C70131
:1023500081FD0E948709E12CFF24F3948C2D8F21AD
:10236000F1F00E943E11882399F0EE828F82DF20E7
:1023700081E009F480E088870E94101D8160782F39
:102380009A8789874E815F8168858A850E940B12B2
:10239000F801ED59FE4F8081F826F08206C0E394E3
:1023A000FF0CF4E0EF12DACFBBCF0E94A60D911024
:1023B0000E94680C0E94DF10909162018917C1F0A1
:1023C0000E94DF10809362012A960FB6F894DEBF58
:1023D0000FBECDBFDF91CF911F910F91FF90EF9076
:1023E000DF90CF90BF90AF909F908F900C94AF07ED
:1023F0002A960FB6F894DEBF0FBECDBFDF91CF9106
:102400001F910F91FF90EF90DF90CF90BF90AF9012
:102410009F908F900895DF92EF92FF920F931F93FA
:10242000CF93DF93CDB7DEB72B970FB6F894DEBF0F
:102430000FBECDBFF42E052F162FE72ED82E61111B
:102440000E94081BFE01319686E0DF011D928A95ED
:10245000E9F77E2D4F2D502F612F8D2D9E810E94EB
:1024600054182B960FB6F894DEBF0FBECDBFDF9188
:10247000CF911F910F91FF90EF90DF900895FC0195
:10248000808191810E94A91A0895CF93882309F42D
:1024900082C0C82F8238C1F40E94DF1081FD7BC04A
:1024A00069E38091090190910A010E947E1C0E94BB
:1024B000291B2FEF81EE94E0215080409040E1F7FE
:1024C00000C0000069E319C08338F1F40E94DF10F6
:1024D00080FD61C063E58091090190910A010E942D
:1024E0007E1C0E94291B2FEF81EE94E0215080403A
:1024F0009040E1F700C0000063E5809109019091F0
:102500000A010E94801C44C08438C1F40E94DF107C
:1025100082FD41C067E48091090190910A010E9407
:102520007E1C0E94291B2FEF81EE94E021508040F9
:102530009040E1F700C0000067E4DFCF8CEF8C0F24
:10254000813AD0F46C2F8091090190910A010E9488
:10255000481C882349F06C2F8091090190910A0151
:102560000E94801C0E94291B6C2F80910901909170
:102570000A010E947E1C0CC080E28C0F883058F447
:10258000C77081E001C0880FCA95EAF70E94EB1A74
:10259000CF910C94291BCF910895882309F45BC037
:1025A000682F823879F40E94DF1081FF54C069E3FC
:1025B0008091090190910A010E947E1C0E94291BB2
:1025C00069E310C08338B1F40E94DF1080FF43C07C
:1025D00063E58091090190910A010E947E1C0E948E
:1025E000291B63E58091090190910A010E94801CDA
:1025F0000C94291B843879F40E94DF1082FF2BC0D1
:1026000067E48091090190910A010E947E1C0E945A
:10261000291B67E4E7CF8CEF860F813A18F380E23D
:10262000860F883048F4677081E001C0880F6A9592
:10263000EAF70E94F11ADCCF8BE5860F833020F495
:1026400080E090E00C94F610685A673120F480E046
:1026500090E00C940C1108951F93CF93DF93182FE3
:10266000EB010E944512209741F08FE99FE001970E
:10267000F1F700C000002197F6CF812FDF91CF91B5
:102680001F910C94CD12893319F060E070E002C004
:1026900060E570E00C942C13882321F00E94EB1A63
:1026A0000C94291B0895882321F00E94F11A0C94A0
:1026B000291B0895CF92DF92EF92FF920F931F9301
:1026C000CF93DF937C01D62FC72FFC0102811581A8
:1026D00012951F700E94E11A882399F0002389F057
:1026E0008C2F807F803421F080E28D0F883048F07D
:1026F00082E00E94731B0E94E11A91E0D82ED92635
:1027000001C0D12CCC2EC2948FE0C8228C2D90E039
:102710008C30910508F08DC1FC01EA5AFF4F0C94F2
:1027200017248C2F807FCF70882311F0C295C07F33
:10273000002399F0CC2309F468C180E28D0F883022
:1027400010F0D11104C08C2F0E94EB1A03C08C2F03
:102750000E94FB1A0E94291B58C18D2F0E94CD1286
:10276000CC2309F466C180E28D0F883010F0D111BE
:1027700004C08C2F0E94F11A03C08C2F0E94011BF1
:102780000E94291B56C18C2F807FCF70803211F0A0
:10279000C295C07FDD2319F0D130C9F022C00023DB
:1027A00071F0112341F0113031F40E940E1B8C2B7B
:1027B0000E94161B3EC10E940E1B8C2B1DC01123B4
:1027C00019F0113009F435C10E941F1B25C00023E8
:1027D00021F0163008F02DC10EC0153008F029C1C7
:1027E0001BC0002361F0112331F0F701858180FFC8
:1027F0000CC18F7085838C2F0E944C131AC111233A
:1028000059F0D93309F012C1FFEF07EE13E0F15090
:1028100000401040E1F708C18C2F0E94531309C1FA
:102820008C2F837009F047C0011107C12D2F22950D
:1028300026952770220F220F6D2F6F70862F90E044
:10284000A0E0B0E0022E04C0880F991FAA1FBB1F92
:102850000A94D2F7D4FF10C04FE050E060E070E07F
:1028600004C0440F551F661F771F2A95D2F7409565
:1028700050956095709503C040E050E0BA01C69550
:10288000C695C3708A019B01082B192B2A2B3B2B61
:10289000C901B801C23049F058F4C13019F00E94A2
:1028A0002819CBC00E941619C8C00E943A19C5C089
:1028B0000E941419C2C0002319F08C2F817001C02E
:1028C0008695882309F4B9C02D2F22952695277067
:1028D000220F220F6D2F6F70862F90E0A0E0B0E0E6
:1028E000022E04C0880F991FAA1FBB1F0A94D2F79B
:1028F000D4FF10C04FE050E060E070E004C0440F2F
:10290000551F661F771F2A95D2F740955095609501
:10291000709503C040E050E0BA01C695C695C370FB
:102920008A019B01082B192B2A2B3B2BC901B801CB
:10293000C23049F058F4C13019F00E94ED197DC041
:102940000E94DB197AC00E94FF1977C00E944E19BD
:1029500074C0CF70002339F08C2F0E9474198D2F12
:102960000E944C136AC08D2F0E9453138C2F0E941B
:10297000951963C0D23F01F128F4D03F41F0D13F17
:10298000A1F03FC0D33FF9F0D43F39F13AC0002362
:1029900041F0153008F04DC08C2F8F710E94BA198C
:1029A00048C0163008F045C0F7CF002339F08C2F0F
:1029B0008F710E9474193DC00023C9F38C2F8F7151
:1029C0000E94951936C0002329F08C2F8F710E9428
:1029D0005F192FC00E945A192CC0002349F0CF71F3
:1029E0008C2F0E94741963E08C2F0E945E1B21C003
:1029F00081E00E94731B1230E0F082E00E94731BA2
:102A000018C0002331F0112391F28D2F0E9445123E
:102A100010C0112399F2D93349F41FEF27EE33E0A8
:102A2000115020403040E1F700C000008D2F0E947F
:102A3000CD1288EF8C0D843020F40E94DF100E94AC
:102A4000AF07DD20C9F00E94DD1A80FD15C0F70137
:102A500012820E94D71A0E947419C7010E945D1544
:102A60000E94D71ADF91CF911F910F91FF90EF90A5
:102A7000DF90CF900C949519DF91CF911F910F911A
:102A8000FF90EF90DF90CF9008950F931F93CF9317
:102A9000DF93EC01688179818A810E94B41A8C01EC
:102AA0000E94111A0E940219B801CE010E945A1305
:102AB000DF91CF911F910F910895CF93DF93EC0198
:102AC000988189812B813C81232B31F08F3F31F418
:102AD00081E09F3F19F403C081E001C080E080FDE8
:102AE00019C0CE010E94450681110CC00E94E11A56
:102AF000882381F08A81882369F082E0DF91CF9179
:102B00000C94731BCE010E944515CE01DF91CF912D
:102B10000C942006DF91CF9108950E94081B0E941B
:102B20000B1B0C94291B8091090190910A010E94B2
:102B3000821C0C948D150E94F81A0C949315E92FA1
:102B4000E295EF704E2F50E0FA013297EE30F1052A
:102B5000B0F4EE59FF4F0C941724803F91F018F415
:102B6000883E68F40EC0843F51F40BC0883E48F0A4
:102B7000813F29F406C093FB882780F9089580E0FF
:102B8000089581E008950E94A91A0E949F15089552
:102B9000CF93DF9300D000D01F92CDB7DEB70F9058
:102BA0000F900F900F900F90DF91CF910895CF93DA
:102BB000DF9300D000D000D0CDB7DEB726960FB699
:102BC000F894DEBF0FBECDBFDF91CF9108951F9364
:102BD000CF93DF93C091700116E080917101C81707
:102BE00099F0D0E01C9FF0011D9FF00D1124EE58CC
:102BF000FE4F4081518162817381848195810E9461
:102C0000D7152196C770E9CFDF91CF911F91089515
:102C10004091A2015091A3016091A4017091A5017E
:102C20008091A6019091A7010C94D7150F931F9343
:102C3000CF93DF938091A70182958F7009F05DC0DB
:102C40008091A401882309F458C0809170011091EB
:102C500071016091A2017091A301C091A501D09171
:102C6000A60191E06F3F09F090E0292F06E081175F
:102C700009F443C0209721F07F3F21F030E003C0EA
:102C800031E001C0322F90E030FD34C0089FF001E8
:102C9000099FF00D1124DF01AE58BE4F11963C91F3
:102CA0001197371327C03C91361324C012963C91DC
:102CB000129731111FC013964D915C9114974C1BC4
:102CC0005D0B483C5105B0F48091A7018F70806185
:102CD0008093A701E958FE4F80818F7080618083C7
:102CE00082EA91E00E945D15DF91CF911F910F91D3
:102CF0000C94E71501968770BACFDF91CF911F91A1
:102D00000F9108959F92AF92BF92CF92DF92EF9270
:102D1000FF920F931F93CF93DF93CDB7DEB76197E9
:102D20000FB6F894DEBF0FBECDBF8C0185E0F80171
:102D3000DE011D9601900D928A95E1F7F801408120
:102D40005181E2809091A2016091A3012091A5019F
:102D50003091A6012115310531F06F3F31F481E04A
:102D60009F3F19F403C081E001C080E0F82FF170AB
:102D70009F2E80FD46C1F801A380B48082EAC82E50
:102D800081E0D82EF090A401F501E21BF30BFF20A7
:102D900009F4DFC08091A701E83CF10508F09BC071
:102DA000282F207F09F052C0561313C0491311C0B9
:102DB000FE2CE1100EC08F7080618093A7010E94ED
:102DC0000816C6010E945D158091A701F801858350
:102DD00058C1AB2831F05F3F31F481E04F3F19F427
:102DE00003C081E001C080E080FD03C081E08E254A
:102DF00002C080E090E0F82FF170FF2E80FF1CC031
:102E0000809170012091710136E0821709F417C199
:102E100090E0389FF001399FF00D1124EE58FE4FDD
:102E20006181561306C06081461303C06281E612B9
:102E300003C001968770E9CFFE2CEE2009F421C172
:102E40008091A70181608093A7015AC0561306C0E4
:102E5000491304C0E11002C0F8019FC04D875E878E
:102E60008D859E850E94C315882379F1EE2069F136
:102E70002091A701822F82958F7090E0029774F0C5
:102E80008091A2019091A30198878F831986BB86B8
:102E9000AA862C87CE0107960E945D1586E0F80170
:102EA000A2EAB1E001900D928A95E1F70E94161610
:102EB0000E9408160DC0561729F14D875E878D8533
:102EC0009E850E94C31581112CC0C8010E945D150A
:102ED000FF24F394D6C0282F207F69F77A2DB98A72
:102EE000A88A6E2D89890E94C81582EA91E00E9405
:102EF0005D1586E0F60111928A95E9F70E940816A1
:102F0000F12CBFC04913D9CFE110D7CFF801858389
:102F1000C8010E945D1586E0F60111928A95E9F7D5
:102F2000B0C0EE2091F22091A701822F82958F7080
:102F300090E002970CF4B2CF8091A2019091A3018E
:102F40009A8389831B82BD82AC822E83CE01019637
:102F5000A3CFE83CF10508F047C0FE2CEE2009F4B1
:102F6000B4CF561330C049132EC02091A70120FDC5
:102F700021C0822F82958F70482F50E04115510556
:102F8000C9F0F80125834F30510541F08F5F982F2C
:102F90009295907F822F8F70892B8583C8010E9424
:102FA0005D1586E0F801A2EAB1E001900D928A95E4
:102FB000E1F742C086E0F801A2EAB1E001900D928B
:102FC0008A95E1F75EC04D875E878D859E850E945C
:102FD000C315811163CF8091A70181608093A70100
:102FE000C8010E945D154DC07A2DB98AA88A6E2D40
:102FF00089890E94C81586E0F60111928A95E9F741
:103000001BC0EE2009F461CF4D875E878D859E85BC
:103010000E94C315F82E882309F457CF86E0F801E3
:10302000A2EAB1E001900D928A95E1F782EA91E07F
:103030000E943F120E9416160E94081622C04D8759
:103040005E878D859E850E94A91A292F22952F7053
:10305000223028F49F7039F0811105C00BC0243054
:1030600028F49F7049F4805E883020F0C8010E94E7
:103070005D159F2CF92C05C0F8019581907F99F77B
:10308000F9CF8F2D61960FB6F894DEBF0FBECDBF7E
:10309000DF91CF911F910F91FF90EF90DF90CF9034
:1030A000BF90AF909F9008951F93CF93DF93CDB7BC
:1030B000DEB72C970FB6F894DEBF0FBECDBF4F839F
:1030C000588769877A878B879C87CE0107960E94ED
:1030D00082168823D1F09F8188852A853B85232B02
:1030E00031F08F3F31F481E09F3F19F403C081E05C
:1030F00001C080E080FD47C04F81588569857A8591
:103100008B859C850E94D7153EC086E0FE013796D0
:10311000DE01119601900D928A95E1F7FF81E88515
:103120006A857B856115710531F0EF3F31F481E0EF
:10313000FF3F19F403C081E001C080E080FD23C09F
:103140002091710130E0C901019687709927409163
:10315000700150E084179507F1F1F983EA837D83CC
:103160006C8396E0929FD001939FB00D1124AE58CE
:10317000BE4FFE01319601900D929A95E1F7809332
:1031800071010E94E71516E0809170019091710124
:10319000891771F1189FC00111248E589E4F0E940B
:1031A0008216882329F1E09170011E9FF0011124FD
:1031B000EE58FE4F408151816281738184819581F7
:1031C0000E94D7158091700190E001968770992731
:1031D00080937001D9CF0E949B15109271011092BB
:1031E0007001E2EAF1E086E0DF011D928A95E9F7DD
:1031F0002C960FB6F894DEBF0FBECDBFDF91CF91F6
:103200001F910895089508950C9403190C940419BE
:103210000E9406196093B6017093B7018093B801BC
:103220009093B9010C948D150C9408190F931F936A
:103230000091B6011091B7012091B8013091B90108
:10324000602B712B822B932B1F910F910C940819DB
:103250000F931F930091B6011091B7012091B8010F
:103260003091B90160237123822393231F910F9121
:103270000C9408190F931F930091B6011091B70198
:103280002091B8013091B9016027712782279327D7
:103290001F910F910C9408190C9403190E944C195A
:1032A0006093B2017093B3018093B4019093B50120
:1032B0000C948D1560E070E0CB010C944E190F93C7
:1032C0001F9341E050E060E070E08A019B0104C080
:1032D000000F111F221F331F8A95D2F7C901B801B1
:1032E0001F910F910C944E190F931F9341E050E0E2
:1032F00060E070E004C0440F551F661F771F8A9579
:10330000D2F78091B2019091B301A091B401B09134
:10331000B5018A019B01082B192B2A2B3B2BC901D4
:10332000B8011F910F910C944E190F931F9341E018
:1033300050E060E070E004C0440F551F661F771F27
:103340008A95D2F740955095609570958091B2011D
:103350009091B301A091B401B091B5018A019B0194
:10336000082319232A233B23C901B8011F910F9178
:103370000C944E190F931F9341E050E060E070E011
:1033800004C0440F551F661F771F8A95D2F780919E
:10339000B2019091B301A091B401B091B5018A013D
:1033A0009B01082719272A273B27C901B8011F912C
:1033B0000F910C944E190F931F930091B20110912D
:1033C000B3012091B4013091B501602B712B822B98
:1033D000932B1F910F910C944E190F931F930091F3
:1033E000B2011091B3012091B4013091B501602375
:1033F0007123822393231F910F910C944E190F93E5
:103400001F930091B2011091B3012091B40130914A
:10341000B50160277127822793271F910F910C9484
:103420004E190895990F990F890FE82FE695E695A3
:10343000E695877051E001C0550F8A95EAF785E05F
:10344000E89FF0011124E855FE4F20E030E070E0E5
:103450004081CB01022E02C0969587950A94E2F72F
:103460008170819584278523842781932F5F3F4F27
:103470002530310569F70895990F990F890F682F45
:10348000669566956695982F977085E0689FB00160
:10349000112440E050E080E0FB01E40FF51FE85507
:1034A000FE4F208130E0092E02C0369527950A9400
:1034B000E2F721703327042E01C0220F0A94EAF7A5
:1034C000822B4F5F5F4F4530510531F70895BF9212
:1034D000CF92DF92EF92FF920F931F93CF93DF93E0
:1034E0008C01C090B201D090B301E090B401F09093
:1034F000B5018091B6019091B701A091B801B0914A
:10350000B901C82AD92AEA2AFB2ACFE1D0E0D7019B
:10351000C6010C2E04C0B695A795979587950A9479
:10352000D2F780FD04C0219790F7B12C07C0BC2EC4
:10353000B8018C2F0E94CC070197A9F38B2DDF9146
:10354000CF911F910F91FF90EF90DF90CF90BF90A0
:103550000895CF93DF93EC010E94671ABE010E9489
:10356000CC07DF91CF9108951F93CF93DF93EB01A9
:1035700090916F01992321F0CB010E94A91A13C0E9
:10358000882349F0CB010E94671A182F682FCE01BB
:103590000E94121A04C0CB010E943C1A182FBE01CF
:1035A000812F0E94CC07DF91CF911F9108958091C8
:1035B000BA0185958595859508958091BA018770A2
:1035C00008959091BA01977081E009F480E0089520
:1035D0008091C60108959091C601892B8093C60100
:1035E000089580959091C60189238093C60108951E
:1035F0001092C60108959091C501892B8093C50151
:10360000089580959091C50189238093C5010895FF
:103610001092C50108951092C40108958091BB01D4
:10362000089508950C94111B0C94121B9091BB01EA
:10363000981721F08093BB010C94141B089580917E
:10364000BB01882329F01092BB0180E00C94141B6D
:103650000895E0910901F0910A018091C6018083EB
:10366000E0910901F0910A0190818091C501892BB7
:103670008083E0910901F0910A0190818091C40159
:10368000892B80838091BB01882381F0E09109011F
:10369000F0910A019081892B80838091090190919A
:1036A0000A010E943C1C81110E941F1B809109018C
:1036B00090910A010C94EB100C94111B98E0899FD7
:1036C00090011124262B2093BA010E947419809135
:1036D000BA018595859585950C945C1B1092BA016D
:1036E00080E00C945C1B2091BA018095822380932A
:1036F000BA01982F977079F430E0482F082E000C0B
:10370000550B2417350739F08595859585950E94C9
:1037100095190C946E1B089580E0089580E090E068
:103720000E943B2421E08B3E9E4F09F020E0822F37
:10373000089582E090E00C94332483E090E00C94B0
:103740003324CF9384E090E00E943324C82F81E299
:1037500090E00E9433242C2F30E0A901582BCA019D
:10376000CF910895CF93C92F682F84E090E00E94F5
:1037700041246C2F81E290E0CF910C944124AB0165
:10378000BC018FE090E00C945324AB01BC0183E1B9
:1037900090E00C94532460E070E0CB010C94C51BC6
:1037A00060E070E0CB010E94BF1B0C94CB1B6BEE62
:1037B0007EEF80E090E00E945F2460E082E090E095
:1037C0000E94412460E083E090E00E944124109236
:1037D000B6011092B7011092B8011092B90160E0E1
:1037E00084E090E00E94412460E081E290E00E9449
:1037F000412460E085E090E00E94412460E086E0A2
:1038000090E00E9441246FEF87E090E00E94412405
:1038100040E050E0BA0188E090E00E94532460E06C
:103820008DE090E00E94412440E050E0BA0188E140
:1038300090E00E94532460E087E190E00E944124E0
:1038400040E050E0BA018CE190E00E94532460E037
:1038500080E290E00E94412440E050E0BA0188E11B
:1038600090E00E9453240C94D01B0C94D71B682F1B
:103870008EE090E00C944124FC01329697E080E0C9
:10388000915029F021912223D9F38F5FF9CF089528
:10389000662349F0FC01329608962191621729F0BF
:1038A000E817F907D1F780E0089581E008959C01B9
:1038B000FC0132969FEF80E04191461789F09F3FCF
:1038C00019F4411101C0982F8F5F8630A9F79F3FEF
:1038D00039F0F901E90FF11D97FDFA95628308951A
:1038E00008959C012A5F3F4FFC014281461301C0AD
:1038F0001282019682179307B9F708950C94571C0A
:103900000C94711C029626E0FC0111922A95E9F7AD
:10391000089508950C94891C0C94891CCF930E94DF
:103920008C1C0E94DE090E948A1CC0E08C2F0E9421
:103930008109811104C0CF5FC430C1F701C081E0AB
:10394000CF9108950C94891C0C94A21C8091EB03D8
:10395000843049F10E94A41C80E00E94AF071092BD
:10396000C80120E488E190E00FB6F894A895809310
:1039700060000FBE2093600083B7817F846083BFA7
:1039800083B7816083BF7894889583B78E7F83BF28
:103990000FB6F894A89580916000886180936000CC
:1039A000109260000FBE08950C94891C0E949B1514
:1039B0000E94DF100E94AF070C94D41C1F920F923C
:1039C0000FB60F9211248F939F93AF93BF93809163
:1039D000C801811113C08091E1039091E203A0918D
:1039E000E303B091E4034196A11DB11D8093E1036F
:1039F0009093E203A093E303B093E403BF91AF91EC
:103A00009F918F910F900FBE0F901F90189582E09D
:103A100084BD93E095BD9AEF97BD80936E000895A5
:103A20002FB7F8948091E1039091E203A091E30312
:103A3000B091E4032FBF08952FB7F8946091E1038C
:103A40007091E2038091E3039091E4032FBF089506
:103A50009C014FB7F8948091E1039091E203A0910B
:103A6000E303B091E4034FBF821B930B0895789456
:103A70001F920F920FB60F9211248F939F93AF93C3
:103A8000BF938091E1039091E203A091E303B09191
:103A9000E4030196A11DB11D8093E1039093E2031D
:103AA000A093E303B093E403BF91AF919F918F91F3
:103AB0000F900FBE0F901F90189581E08093E0004B
:103AC00080E28093D8001092C9008FE19EE40197B4
:103AD000F1F700C0000087E090EBDC018093F40375
:103AE0009093F503A093F603B093F7039CE088E16D
:103AF0000FB6F894A895809360000FBE9093600075
:103B0000FFCF909327018093260108950E948E1B7A
:103B1000811102C00E94351C0E94991B8093C7012D
:103B20000E94A11B9093E6038093E5030E949D1BD6
:103B3000682F70E080E090E00E9414196091B2015B
:103B40007091B3018091B4019091B5010C944C191E
:103B50008091D101089508950895CF93DF9321E0D6
:103B60002093E9002FEF3091E800215035FD06C089
:103B700035ED3A95F1F700002111F5CF2091E800DD
:103B800025FF14C0EC0140E050E068E070E00E94C6
:103B9000591F8091E8008E778093E80088E0FE014D
:103BA000A9ECB1E001900D928A95E1F7DF91CF91F8
:103BB000089508958091EA03811109C00E94EA20C6
:103BC0000E9447218091E20084608093E200089582
:103BD0001092EA03089508950895089542E061EC73
:103BE00081E00C9463208091ED03833009F460C080
:103BF00030F4813071F0823009F499C008958A3030
:103C000009F485C08B3009F46BC0893009F0A7C076
:103C100020C08091EC03813A09F0A1C08091E800B6
:103C2000877F8093E8008091F0039091F103892BC6
:103C300021F468E089EC91E003C060E080E090E06E
:103C400070E00E94A41F8091E8008B778093E800C9
:103C500008958091EC03813209F081C08091F003D6
:103C60009091F103892B09F07AC08091E800877F59
:103C70008093E8008091E80082FD05C08091EB030D
:103C80008111F8CF6CC02091F3008091F20090E098
:103C9000922B029729F48091F1008B7F813021F4DF
:103CA0008091F1008093D1018091E8008B7753C01F
:103CB0008091EC03813A09F052C08091F003909119
:103CC000F103892B09F04BC08091E800877F809336
:103CD000E8008091E80080FFFCCF8091150136C09C
:103CE0008091EC038132D9F58091F0039091F1033A
:103CF000892BA9F58091E800877F8093E8000E94D6
:103D000098208091EE03809315010C949B1580916F
:103D1000EC03813221F58091E800877F8093E800F1
:103D20000E9498208091EF038093D20108958091A2
:103D3000EC03813AA1F48091E800877F8093E8004A
:103D40008091E80080FFFCCF8091D2018093F10048
:103D50008091E8008E778093E8000C949820089575
:103D600084B7877F84BF0FB6F894A89580916000D0
:103D7000886180936000109260000FBE90E080E840
:103D80000FB6F89480936100909361000FBE0E947B
:103D90004D110E94EA200E9447218091E200846038
:103DA0008093E20078940E94DC230E9457118BE0FC
:103DB00091E00E94DA108091EB038530A9F48091A4
:103DC000EB03853079F40E94A61C8091E9038823D7
:103DD000B1F30E948E1C882391F30E94431F0E941E
:103DE0009B15EDCF0E94D61C0E9462110E944111CA
:103DF0000E944011E0CF0C94FD1E292F3327233061
:103E00003105C1F058F42130310579F02230310507
:103E100091F582E290E02BEE39E031C0213231059C
:103E2000E1F02232310501F126C082E190E02DE07F
:103E30003AE025C099278130910549F028F0029792
:103E4000D1F4EBEBF9E005C0E7EEF9E002C0EDECF0
:103E5000F9E0849190E09F0112C0672B61F489E042
:103E600090E02DEF39E00BC0672B29F480E490E05F
:103E70002FE13AE004C080E090E020E030E0FA0179
:103E800031832083089580E189BD82E189BD09B431
:103E900000FEFDCF8091D8008F7D8093D800809167
:103EA000E00082608093E0008091E00081FDFCCF23
:103EB0000895CF92DF92EF92FF920F931F93CF93CB
:103EC000DF93EC018B017A010E94B720811133C08E
:103ED000E114F10439F0F70180819181081B190B7D
:103EE000C80FD91FC12CD12C0115110519F18091D2
:103EF000E80085FD16C08091E8008E778093E80089
:103F0000E114F10449F0F70180819181C80ED91EB6
:103F1000D182C08285E00FC00E94B720882321F3A0
:103F20000AC089918093F10001501109FFEFCF1A67
:103F3000DF0ADACF80E0DF91CF911F910F91FF90E0
:103F4000EF90DF90CF9008952091F2033091F3032A
:103F50002617370748F06115710539F42091E800FC
:103F60002E772093E80001C0B901FC0120E0611523
:103F7000710579F18091EB038823F1F18530F1F13E
:103F80008091E80083FD3CC08091E80082FD2EC056
:103F90008091E80080FFEBCF2091F3008091F20048
:103FA00090E0922B6115710551F08830910538F43D
:103FB00021912093F100615071090196F3CF21E026
:103FC000089709F020E08091E8008E778093E80060
:103FD000CECF2111CFCF0AC08091EB03882361F0AF
:103FE000853061F08091E80083FD0AC08091E8008F
:103FF00082FFF2CF80E0089582E0089583E0089583
:1040000081E008952091F2033091F30326173707DA
:1040100048F06115710539F42091E8002E7720935E
:10402000E80001C0B901FC0120E06115710591F1C2
:104030008091EB03882309F440C0853009F43FC028
:104040008091E80083FD3DC08091E80082FD2FC093
:104050008091E80080FFE9CF2091F3008091F20089
:1040600090E0922B6115710559F08830910540F46C
:1040700024912093F1003196615071090196F2CF9D
:1040800021E0089709F020E08091E8008E77809386
:10409000E800CBCF2111CCCF0AC08091EB0388235D
:1040A00061F0853061F08091E80083FD0AC0809165
:1040B000E80082FFF2CF80E0089582E0089583E077
:1040C000089581E00895982F973068F59093E9005E
:1040D000981739F07091EC002091ED005091F000AC
:1040E00003C0242F762F50E021FD02C09F5FECCF4C
:1040F0003091EB003E7F3093EB003091ED003D7F3F
:104100003093ED003091EB0031603093EB00709311
:10411000EC002093ED005093F0002091EE0027FD7D
:10412000E5CF80E008958F708093E90081E00895E5
:104130008091EC0387FF11C08091E80082FD05C0EB
:104140008091EB038111F8CF11C08091E8008B774B
:104150000BC08091EB03882349F08091E80080FF39
:10416000F8CF8091E8008E778093E8000895209141
:10417000E4003091E50095E64091EC00842F8170D9
:1041800040FF23C08091E80080FD1DC08091EB03BB
:10419000882399F0853099F08091EB0085FD11C05E
:1041A0004091E4005091E5002417350729F3915020
:1041B00011F09A01E1CF84E0089582E0089583E050
:1041C000089581E0089580E008954091E80042FF5D
:1041D000DDCF08950E9458210E946021E0EEF0E0BA
:1041E000808181608083E8EDF0E080818F7780833B
:1041F00019BCA7EDB0E08C918E7F8C9380818F7E6F
:1042000080831092EA0308950F931F93CF93DF9357
:104210000E9458210E946021C8EDD0E088818F77EC
:10422000888388818068888388818F7D888319BC92
:104230001092EB031092E7031092E9031092E80347
:1042400000EE10E0F80180818B7F8083888181609F
:10425000888342E060E080E00E946320E1EEF0E0CD
:1042600080818E7F8083E2EEF0E0808181608083B8
:10427000808188608083F80180818E7F808388813F
:1042800080618883DF91CF911F910F910895E8EDB0
:10429000F0E080818F7E8083E7EDF0E080818160B7
:1042A000808384E082BF81E08093EA030C94042140
:1042B000E8EDF0E080818E7F80831092E200089527
:1042C0001092DA001092E10008951F920F920FB63B
:1042D0000F9211242F933F934F935F936F937F938C
:1042E0008F939F93AF93BF93EF93FF938091E100E0
:1042F00082FF0BC08091E20082FF07C08091E10045
:104300008B7F8093E1000E94DB238091DA0080FFA5
:104310001FC08091D80080FF1BC08091DA008E7F83
:104320008093DA008091D90080FF0DC080E189BDC3
:1043300082E189BD09B400FEFDCF81E08093EB03EB
:104340000E94DA1D05C019BC1092EB030E94E81D03
:104350008091E10080FF19C08091E20080FF15C0CC
:104360008091E2008E7F8093E2008091E200806184
:104370008093E2008091D80080628093D80019BCBD
:1043800085E08093EB030E94EC1D8091E10084FFA7
:1043900030C08091E20084FF2CC080E189BD82E1C1
:1043A00089BD09B400FEFDCF8091D8008F7D809338
:1043B000D8008091E1008F7E8093E1008091E2003F
:1043C0008F7E8093E2008091E20081608093E20022
:1043D0008091E703882311F084E007C08091E30017
:1043E00087FD02C081E001C083E08093EB030E945F
:1043F000ED1D8091E10083FF29C08091E20083FFE1
:1044000025C08091E100877F8093E10082E0809366
:10441000EB031092E7038091E1008E7F8093E1002F
:104420008091E2008E7F8093E2008091E2008061C3
:104430008093E20042E060E080E00E94632080918F
:10444000F00088608093F0000E94EB1DFF91EF91D7
:10445000BF91AF919F918F917F916F915F914F919C
:104460003F912F910F900FBE0F901F9018951F92A4
:104470000F920FB60F9211242F933F934F935F9398
:104480006F937F938F939F93AF93BF93CF93DF935C
:10449000EF93FF93C091E900CF708091EC00D82F8B
:1044A000D17080FDD0E81092E9008091F000877F04
:1044B0008093F00078940E947B221092E900809112
:1044C000F00088608093F000CD2BCF70C093E9009E
:1044D000FF91EF91DF91CF91BF91AF919F918F911C
:1044E0007F916F915F914F913F912F910F900FBEF0
:1044F0000F901F9018951F93CF93DF93CDB7DEB722
:10450000AA970FB6F894DEBF0FBECDBFECEEF3E076
:104510008091F100819323E0E43FF207C9F70E9404
:10452000F31D8091E80083FF2EC18091EC039091F0
:10453000ED03492F50E04A30510508F024C1FA013B
:10454000E059FF4F0C941724803821F0823809F08D
:104550001AC108C08091E8039091E903992389F07A
:1045600082600FC08091F0038F70873008F00BC11C
:104570008093E9008091EB0085FB882780F91092F9
:10458000E9009091E800977F9093E8008093F10014
:104590001092F100D1C0282F2D7F09F0F4C088239C
:1045A00019F0823061F0EFC08091EE03813009F0A4
:1045B000EAC0933009F080E08093E9032EC0809137
:1045C000EE0381112AC08091F0038F702FEF280F26
:1045D000263008F0D8C08093E9002091EB0020FF3E
:1045E0001CC0933021F48091EB00806214C0909144
:1045F000EB0090619093EB0021E030E0A90102C054
:10460000440F551F8A95E2F74093EA001092EA00A2
:104610008091EB0088608093EB001092E90080911C
:10462000E800877F8093E8000E949820ACC0811149
:10463000AAC01091EE031F778091E3008078812B50
:104640008093E3008091E800877F8093E8000E94D8
:1046500098208091E80080FFFCCF8091E300806883
:104660008093E300111102C082E001C083E08093D7
:10467000EB0389C08058823008F085C08091EE033A
:104680009091EF038C3D53E0950779F583E08A83A1
:104690008AE289834FB7F894DE01139620E03EE06A
:1046A00051E2E32FF0E050935700E49120FF03C064
:1046B000E295EF703F5FEF708E2F90E0EA3010F0E0
:1046C000C79601C0C0968D939D932F5F243149F703
:1046D0004FBF8091E800877F8093E8006AE270E036
:1046E000CE0101960E94A41F16C06091F003709144
:1046F000F103AE014F5F5F4F0E94FB1EBC01892B8F
:1047000009F441C09091E800977F9093E800898177
:104710009A810E9402208091E8008B778093E800C4
:1047200032C0803881F58091E800877F8093E8006F
:104730008091E7038093F1008091E8008E7772CF3B
:10474000811121C08091EE039091EF039927029788
:10475000D4F48091E800877F8093E8008091EE0395
:104760008093E7030E9498208091E703811106C09F
:104770008091E30087FD02C081E001C084E0809366
:10478000EB030E94EE1D8091E80083FF0AC0809138
:10479000E800877F8093E8008091EB00806280933F
:1047A000EB00AA960FB6F894DEBF0FBECDBFDF9127
:1047B000CF911F9108950895CF938091EB038823A3
:1047C000A1F0C091E900CF709091EC00892F817029
:1047D00090FD80E8C82B1092E9008091E80083FDED
:1047E0000E947B22CF70C093E900CF910895991B5E
:1047F00079E004C0991F961708F0961B881F7A95D8
:10480000C9F780950895AA1BBB1B51E107C0AA1FD9
:10481000BB1FA617B70710F0A61BB70B881F991F61
:104820005A95A9F780959095BC01CD010895EE0F9A
:10483000FF1F0590F491E02D0994FB01DC0102C0FB
:1048400005900D9241505040D8F70895FB01DC01CE
:1048500004C08D910190801921F441505040C8F757
:10486000881B990B0895F999FECF92BD81BDF89AE6
:10487000992780B50895A8E1B0E042E050E00C949B
:104880006724262FF999FECF92BD81BDF89A019732
:1048900000B4021639F01FBA20BD0FB6F894FA9A88
:1048A000F99A0FBE08950396272F0E9442240E9472
:1048B0004124252F0E944224242F0C944224019647
:1048C000272F0E9442240C944124DC01CB01FC01DF
:1048D000F999FECF06C0F2BDE1BDF89A319600B459
:0E48E0000D9241505040B8F70895F894FFCF64
:1048EE0001000021007F220003BC01A81DAD1DABFD
:1048FE001DD91DAC1D013133323697C63435000833
:06490E001018181008004B
:00000001FF
